{
  "_format": "hh-sol-artifact-1",
  "contractName": "EscrowService",
  "sourceName": "contracts/EscrowService.sol",
  "abi": [
    {
      "inputs": [
        {
          "internalType": "address",
          "name": "_rewardToken",
          "type": "address"
        }
      ],
      "stateMutability": "nonpayable",
      "type": "constructor"
    },
    {
      "anonymous": false,
      "inputs": [
        {
          "indexed": false,
          "internalType": "uint256",
          "name": "escrowId",
          "type": "uint256"
        }
      ],
      "name": "EscrowAccepted",
      "type": "event"
    },
    {
      "anonymous": false,
      "inputs": [
        {
          "indexed": false,
          "internalType": "uint256",
          "name": "escrowId",
          "type": "uint256"
        }
      ],
      "name": "EscrowCancelled",
      "type": "event"
    },
    {
      "anonymous": false,
      "inputs": [
        {
          "indexed": false,
          "internalType": "uint256",
          "name": "escrowId",
          "type": "uint256"
        }
      ],
      "name": "EscrowCompleted",
      "type": "event"
    },
    {
      "anonymous": false,
      "inputs": [
        {
          "indexed": false,
          "internalType": "uint256",
          "name": "escrowId",
          "type": "uint256"
        },
        {
          "indexed": false,
          "internalType": "address",
          "name": "client",
          "type": "address"
        },
        {
          "indexed": false,
          "internalType": "address",
          "name": "freelancer",
          "type": "address"
        },
        {
          "indexed": false,
          "internalType": "uint256",
          "name": "amount",
          "type": "uint256"
        },
        {
          "indexed": false,
          "internalType": "address",
          "name": "tokenAddress",
          "type": "address"
        }
      ],
      "name": "EscrowCreated",
      "type": "event"
    },
    {
      "anonymous": false,
      "inputs": [
        {
          "indexed": false,
          "internalType": "uint256",
          "name": "escrowId",
          "type": "uint256"
        }
      ],
      "name": "EscrowDisputed",
      "type": "event"
    },
    {
      "anonymous": false,
      "inputs": [
        {
          "indexed": false,
          "internalType": "uint256",
          "name": "escrowId",
          "type": "uint256"
        }
      ],
      "name": "EscrowReleased",
      "type": "event"
    },
    {
      "anonymous": false,
      "inputs": [
        {
          "indexed": false,
          "internalType": "uint256",
          "name": "newFeePercent",
          "type": "uint256"
        }
      ],
      "name": "FeePercentUpdated",
      "type": "event"
    },
    {
      "anonymous": false,
      "inputs": [
        {
          "indexed": true,
          "internalType": "address",
          "name": "freelancer",
          "type": "address"
        },
        {
          "indexed": false,
          "internalType": "uint256",
          "name": "amount",
          "type": "uint256"
        }
      ],
      "name": "RewardMinted",
      "type": "event"
    },
    {
      "inputs": [],
      "name": "REWARD_PER_JOB",
      "outputs": [
        {
          "internalType": "uint256",
          "name": "",
          "type": "uint256"
        }
      ],
      "stateMutability": "view",
      "type": "function"
    },
    {
      "inputs": [
        {
          "internalType": "uint256",
          "name": "_escrowId",
          "type": "uint256"
        }
      ],
      "name": "acceptEscrow",
      "outputs": [],
      "stateMutability": "nonpayable",
      "type": "function"
    },
    {
      "inputs": [
        {
          "internalType": "uint256",
          "name": "_escrowId",
          "type": "uint256"
        }
      ],
      "name": "completeWork",
      "outputs": [],
      "stateMutability": "nonpayable",
      "type": "function"
    },
    {
      "inputs": [
        {
          "internalType": "address",
          "name": "_freelancer",
          "type": "address"
        }
      ],
      "name": "createEscrowNative",
      "outputs": [
        {
          "internalType": "uint256",
          "name": "",
          "type": "uint256"
        }
      ],
      "stateMutability": "payable",
      "type": "function"
    },
    {
      "inputs": [
        {
          "internalType": "address",
          "name": "_freelancer",
          "type": "address"
        },
        {
          "internalType": "address",
          "name": "_tokenAddress",
          "type": "address"
        },
        {
          "internalType": "uint256",
          "name": "_amount",
          "type": "uint256"
        }
      ],
      "name": "createEscrowToken",
      "outputs": [
        {
          "internalType": "uint256",
          "name": "",
          "type": "uint256"
        }
      ],
      "stateMutability": "nonpayable",
      "type": "function"
    },
    {
      "inputs": [
        {
          "internalType": "uint256",
          "name": "_escrowId",
          "type": "uint256"
        }
      ],
      "name": "disputeEscrow",
      "outputs": [],
      "stateMutability": "nonpayable",
      "type": "function"
    },
    {
      "inputs": [
        {
          "internalType": "uint256",
          "name": "_escrowId",
          "type": "uint256"
        }
      ],
      "name": "emergencyWithdraw",
      "outputs": [],
      "stateMutability": "nonpayable",
      "type": "function"
    },
    {
      "inputs": [],
      "name": "escrowCount",
      "outputs": [
        {
          "internalType": "uint256",
          "name": "",
          "type": "uint256"
        }
      ],
      "stateMutability": "view",
      "type": "function"
    },
    {
      "inputs": [
        {
          "internalType": "uint256",
          "name": "",
          "type": "uint256"
        }
      ],
      "name": "escrows",
      "outputs": [
        {
          "internalType": "address",
          "name": "client",
          "type": "address"
        },
        {
          "internalType": "address",
          "name": "freelancer",
          "type": "address"
        },
        {
          "internalType": "uint256",
          "name": "amount",
          "type": "uint256"
        },
        {
          "internalType": "address",
          "name": "tokenAddress",
          "type": "address"
        },
        {
          "internalType": "enum EscrowService.EscrowStatus",
          "name": "status",
          "type": "uint8"
        }
      ],
      "stateMutability": "view",
      "type": "function"
    },
    {
      "inputs": [],
      "name": "feePercent",
      "outputs": [
        {
          "internalType": "uint256",
          "name": "",
          "type": "uint256"
        }
      ],
      "stateMutability": "view",
      "type": "function"
    },
    {
      "inputs": [
        {
          "internalType": "uint256",
          "name": "_escrowId",
          "type": "uint256"
        }
      ],
      "name": "getEscrow",
      "outputs": [
        {
          "components": [
            {
              "internalType": "address",
              "name": "client",
              "type": "address"
            },
            {
              "internalType": "address",
              "name": "freelancer",
              "type": "address"
            },
            {
              "internalType": "uint256",
              "name": "amount",
              "type": "uint256"
            },
            {
              "internalType": "address",
              "name": "tokenAddress",
              "type": "address"
            },
            {
              "internalType": "enum EscrowService.EscrowStatus",
              "name": "status",
              "type": "uint8"
            }
          ],
          "internalType": "struct EscrowService.Escrow",
          "name": "",
          "type": "tuple"
        }
      ],
      "stateMutability": "view",
      "type": "function"
    },
    {
      "inputs": [],
      "name": "owner",
      "outputs": [
        {
          "internalType": "address",
          "name": "",
          "type": "address"
        }
      ],
      "stateMutability": "view",
      "type": "function"
    },
    {
      "inputs": [
        {
          "internalType": "uint256",
          "name": "_escrowId",
          "type": "uint256"
        }
      ],
      "name": "releaseFunds",
      "outputs": [],
      "stateMutability": "nonpayable",
      "type": "function"
    },
    {
      "inputs": [],
      "name": "rewardToken",
      "outputs": [
        {
          "internalType": "contract IFreelancerToken",
          "name": "",
          "type": "address"
        }
      ],
      "stateMutability": "view",
      "type": "function"
    },
    {
      "inputs": [
        {
          "internalType": "uint256",
          "name": "_newFeePercent",
          "type": "uint256"
        }
      ],
      "name": "updateFeePercent",
      "outputs": [],
      "stateMutability": "nonpayable",
      "type": "function"
    }
  ],
  "bytecode": "0x6080604052601e600355348015601457600080fd5b5060405161153a38038061153a8339810160408190526031916063565b60028054336001600160a01b031991821617909155600480549091166001600160a01b03929092169190911790556091565b600060208284031215607457600080fd5b81516001600160a01b0381168114608a57600080fd5b9392505050565b61149a806100a06000396000f3fe6080604052600436106100e85760003560e01c80637d19e5961161008a578063b563153c11610059578063b563153c146102b6578063ee28ea62146102d6578063f05c5fed146102f6578063f7c618c11461031657600080fd5b80637d19e5961461021b5780637fd6f15c146102485780638da5cb5b1461025e5780639584cdfa1461029657600080fd5b80634e533b78116100c65780634e533b78146101b25780635312ea8e146101d2578063675ac67a146101f25780636ea19a2e1461020857600080fd5b8063012f52ee146100ed57806319def263146101655780634d68282f14610190575b600080fd5b3480156100f957600080fd5b5061014b610108366004611267565b600160208190526000918252604090912080549181015460028201546003909201546001600160a01b03938416939182169291811690600160a01b900460ff1685565b60405161015c9594939291906112b8565b60405180910390f35b34801561017157600080fd5b5061018268056bc75e2d6310000081565b60405190815260200161015c565b34801561019c57600080fd5b506101b06101ab366004611267565b610336565b005b3480156101be57600080fd5b506101b06101cd366004611267565b610762565b3480156101de57600080fd5b506101b06101ed366004611267565b61086d565b3480156101fe57600080fd5b5061018260005481565b610182610216366004611312565b610a7f565b34801561022757600080fd5b5061023b610236366004611267565b610bf3565b60405161015c9190611334565b34801561025457600080fd5b5061018260035481565b34801561026a57600080fd5b5060025461027e906001600160a01b031681565b6040516001600160a01b03909116815260200161015c565b3480156102a257600080fd5b506101826102b1366004611384565b610cad565b3480156102c257600080fd5b506101b06102d1366004611267565b610f27565b3480156102e257600080fd5b506101b06102f1366004611267565b611083565b34801561030257600080fd5b506101b0610311366004611267565b611194565b34801561032257600080fd5b5060045461027e906001600160a01b031681565b600081815260016020526040902080546001600160a01b031633146103a25760405162461bcd60e51b815260206004820152601760248201527f4f6e6c7920636c69656e742063616e2072656c6561736500000000000000000060448201526064015b60405180910390fd5b60026003820154600160a01b900460ff1660058111156103c4576103c4611280565b1461040a5760405162461bcd60e51b815260206004820152601660248201527515dbdc9ac81b5d5cdd0818994818dbdb5c1b195d195960521b6044820152606401610399565b6003818101805460ff60a01b1916600160a01b83021790555060006064600354836002015461043991906113d7565b61044391906113f4565b905060008183600201546104579190611416565b60038401549091506001600160a01b03166104e9576002546040516001600160a01b039091169083156108fc029084906000818181858888f193505050501580156104a6573d6000803e3d6000fd5b5060018301546040516001600160a01b039091169082156108fc029083906000818181858888f193505050501580156104e3573d6000803e3d6000fd5b50610668565b600383015460025460405163a9059cbb60e01b81526001600160a01b0391821660048201526024810185905291169063a9059cbb906044016020604051808303816000875af1158015610540573d6000803e3d6000fd5b505050506040513d601f19601f820116820180604052508101906105649190611429565b6105a65760405162461bcd60e51b8152602060048201526013602482015272119959481d1c985b9cd9995c8819985a5b1959606a1b6044820152606401610399565b6003830154600184015460405163a9059cbb60e01b81526001600160a01b0391821660048201526024810184905291169063a9059cbb906044016020604051808303816000875af11580156105ff573d6000803e3d6000fd5b505050506040513d601f19601f820116820180604052508101906106239190611429565b6106685760405162461bcd60e51b815260206004820152601660248201527514185e5bdd5d081d1c985b9cd9995c8819985a5b195960521b6044820152606401610399565b6004805460018501546040516340c10f1960e01b81526001600160a01b039182169381019390935268056bc75e2d63100000602484015216906340c10f1990604401600060405180830381600087803b1580156106c457600080fd5b505af11580156106d8573d6000803e3d6000fd5b50505050600183015460405168056bc75e2d6310000081526001600160a01b03909116907fe8ea3d4dd0a2eaaf3f7532ad391255544f8a4bcf78f850bbff61d5bac9f775529060200160405180910390a26040518481527f69833829d5691ae09424af7d16f73adf033451149ea9c2fc6fcb4c44108eef679060200160405180910390a150505050565b6000818152600160208190526040909120908101546001600160a01b031633146107c05760405162461bcd60e51b815260206004820152600f60248201526e27b7363c90333932b2b630b731b2b960891b6044820152606401610399565b60016003820154600160a01b900460ff1660058111156107e2576107e2611280565b146108205760405162461bcd60e51b815260206004820152600e60248201526d496e76616c69642073746174757360901b6044820152606401610399565b60038101805460ff60a01b1916600160a11b1790556040518281527f9285bd636dda01bef18996aa38303bb742f6c67a6941646dddb17630cb492c2e906020015b60405180910390a15050565b6002546001600160a01b031633146108b45760405162461bcd60e51b815260206004820152600a60248201526927b7363c9037bbb732b960b11b6044820152606401610399565b600081815260016020526040902060046003820154600160a01b900460ff1660058111156108e4576108e4611280565b146109285760405162461bcd60e51b81526020600482015260146024820152734f6e6c7920646973707574656420657363726f7760601b6044820152606401610399565b600381018054600560a01b60ff60a01b198216179091556001600160a01b03166109905760028054908201546040516001600160a01b039092169181156108fc0291906000818181858888f1935050505015801561098a573d6000803e3d6000fd5b50610a4f565b6003810154600280549083015460405163a9059cbb60e01b81526001600160a01b039283166004820152602481019190915291169063a9059cbb906044016020604051808303816000875af11580156109ed573d6000803e3d6000fd5b505050506040513d601f19601f82011682018060405250810190610a119190611429565b610a4f5760405162461bcd60e51b815260206004820152600f60248201526e15da5d1a191c985dc819985a5b1959608a1b6044820152606401610399565b6040518281527f0d977c6b1a383ac5ce532b4a668d0ef9ad38478e1a5ff28abb221f4b682b264390602001610861565b6000803411610ac25760405162461bcd60e51b815260206004820152600f60248201526e4d7573742073656e64204d4154494360881b6044820152606401610399565b600080549080610ad18361144b565b90915550506040805160a0810182523381526001600160a01b03848116602080840191825234848601908152600060608601818152608087018281528254835260019485905297909120865181549087166001600160a01b031991821617825594519381018054948716948616949094179093559051600283015551600382018054919094169281168317845594519394909392916001600160a81b031990911617600160a01b836005811115610b8a57610b8a611280565b02179055505060008054604080519182523360208301526001600160a01b0386169082015234606082015260808101919091527f23a81bcf12a8fbe4340112bd2726d5f873da36f74fa1837b946d61e596589e30915060a00160405180910390a1505060005490565b610c226040805160a0810182526000808252602082018190529181018290526060810182905290608082015290565b600082815260016020818152604092839020835160a08101855281546001600160a01b039081168252938201548416928101929092526002810154938201939093526003830154918216606082015291906080830190600160a01b900460ff166005811115610c9357610c93611280565b6005811115610ca457610ca4611280565b90525092915050565b6000808211610cf35760405162461bcd60e51b81526020600482015260126024820152710416d6f756e74206d757374206265203e20360741b6044820152606401610399565b6001600160a01b038316610d395760405162461bcd60e51b815260206004820152600d60248201526c24b73b30b634b2103a37b5b2b760991b6044820152606401610399565b600080549080610d488361144b565b90915550506040805160a0810182523381526001600160a01b0386811660208084019182528385018781528884166060860190815260006080870181815281548252600194859052979020865181549087166001600160a01b031991821617825594519381018054948716948616949094179093559051600283015551600382018054919094169281168317845594519394909392916001600160a81b031990911617600160a01b836005811115610e0257610e02611280565b0217905550506040516323b872dd60e01b8152336004820152306024820152604481018490526001600160a01b03851691506323b872dd906064016020604051808303816000875af1158015610e5c573d6000803e3d6000fd5b505050506040513d601f19601f82011682018060405250810190610e809190611429565b610ec45760405162461bcd60e51b8152602060048201526015602482015274151bdad95b881d1c985b9cd9995c8819985a5b1959605a1b6044820152606401610399565b600054604080519182523360208301526001600160a01b03868116838301526060830185905285166080830152517f23a81bcf12a8fbe4340112bd2726d5f873da36f74fa1837b946d61e596589e309181900360a00190a1506000549392505050565b600081815260016020526040902080546001600160a01b0316331480610f59575060018101546001600160a01b031633145b610fa55760405162461bcd60e51b815260206004820152601960248201527f4f6e6c7920636c69656e74206f7220667265656c616e636572000000000000006044820152606401610399565b60016003820154600160a01b900460ff166005811115610fc757610fc7611280565b1480610ff2575060026003820154600160a01b900460ff166005811115610ff057610ff0611280565b145b61103e5760405162461bcd60e51b815260206004820152601960248201527f496e76616c69642073746174757320746f2064697370757465000000000000006044820152606401610399565b60038101805460ff60a01b1916600160a21b1790556040518281527f7ce7831fed9a800b1aa5e7ca21034bf7b95efc31a196459012cf8b8eb42b7dac90602001610861565b6000818152600160208190526040909120908101546001600160a01b031633146110ef5760405162461bcd60e51b815260206004820152601860248201527f4f6e6c792061737369676e656420667265656c616e63657200000000000000006044820152606401610399565b60006003820154600160a01b900460ff16600581111561111157611111611280565b1461114f5760405162461bcd60e51b815260206004820152600e60248201526d496e76616c69642073746174757360901b6044820152606401610399565b60038101805460ff60a01b1916600160a01b1790556040518281527f5b9de403d7547e4bd846917bd9d9a9612804180bbc6094c59decdf7dba6a076090602001610861565b6002546001600160a01b031633146111db5760405162461bcd60e51b815260206004820152600a60248201526927b7363c9037bbb732b960b11b6044820152606401610399565b603281111561122c5760405162461bcd60e51b815260206004820152601b60248201527f4665652063616e6e6f74206265206d6f7265207468616e2035302500000000006044820152606401610399565b60038190556040518181527f64d1887078a96d281ed60dd69ba75bfb6b5cd2cb4c2d2538b2eb7816a4c646ea9060200160405180910390a150565b60006020828403121561127957600080fd5b5035919050565b634e487b7160e01b600052602160045260246000fd5b600681106112b457634e487b7160e01b600052602160045260246000fd5b9052565b6001600160a01b0386811682528581166020830152604082018590528316606082015260a081016112ec6080830184611296565b9695505050505050565b80356001600160a01b038116811461130d57600080fd5b919050565b60006020828403121561132457600080fd5b61132d826112f6565b9392505050565b81516001600160a01b039081168252602080840151821690830152604080840151908301526060808401519091169082015260808083015160a083019161137d90840182611296565b5092915050565b60008060006060848603121561139957600080fd5b6113a2846112f6565b92506113b0602085016112f6565b929592945050506040919091013590565b634e487b7160e01b600052601160045260246000fd5b80820281158282048414176113ee576113ee6113c1565b92915050565b60008261141157634e487b7160e01b600052601260045260246000fd5b500490565b818103818111156113ee576113ee6113c1565b60006020828403121561143b57600080fd5b8151801515811461132d57600080fd5b60006001820161145d5761145d6113c1565b506001019056fea264697066735822122053c718c939f68f8c5f9eda8b07a26f68819173d5e8c14bb2476ad29bbe55c80d64736f6c634300081c0033",
  "linkReferences": {},
  "deployedLinkReferences": {}
}