{
  "_format": "hh-sol-artifact-1",
  "contractName": "FreelancerToken",
  "sourceName": "contracts/FreelancerToken.sol",
  "abi": [
    {
      "inputs": [],
      "stateMutability": "nonpayable",
      "type": "constructor"
    },
    {
      "inputs": [
        {
          "internalType": "address",
          "name": "spender",
          "type": "address"
        },
        {
          "internalType": "uint256",
          "name": "allowance",
          "type": "uint256"
        },
        {
          "internalType": "uint256",
          "name": "needed",
          "type": "uint256"
        }
      ],
      "name": "ERC20InsufficientAllowance",
      "type": "error"
    },
    {
      "inputs": [
        {
          "internalType": "address",
          "name": "sender",
          "type": "address"
        },
        {
          "internalType": "uint256",
          "name": "balance",
          "type": "uint256"
        },
        {
          "internalType": "uint256",
          "name": "needed",
          "type": "uint256"
        }
      ],
      "name": "ERC20InsufficientBalance",
      "type": "error"
    },
    {
      "inputs": [
        {
          "internalType": "address",
          "name": "approver",
          "type": "address"
        }
      ],
      "name": "ERC20InvalidApprover",
      "type": "error"
    },
    {
      "inputs": [
        {
          "internalType": "address",
          "name": "receiver",
          "type": "address"
        }
      ],
      "name": "ERC20InvalidReceiver",
      "type": "error"
    },
    {
      "inputs": [
        {
          "internalType": "address",
          "name": "sender",
          "type": "address"
        }
      ],
      "name": "ERC20InvalidSender",
      "type": "error"
    },
    {
      "inputs": [
        {
          "internalType": "address",
          "name": "spender",
          "type": "address"
        }
      ],
      "name": "ERC20InvalidSpender",
      "type": "error"
    },
    {
      "inputs": [
        {
          "internalType": "address",
          "name": "owner",
          "type": "address"
        }
      ],
      "name": "OwnableInvalidOwner",
      "type": "error"
    },
    {
      "inputs": [
        {
          "internalType": "address",
          "name": "account",
          "type": "address"
        }
      ],
      "name": "OwnableUnauthorizedAccount",
      "type": "error"
    },
    {
      "anonymous": false,
      "inputs": [
        {
          "indexed": true,
          "internalType": "address",
          "name": "owner",
          "type": "address"
        },
        {
          "indexed": true,
          "internalType": "address",
          "name": "spender",
          "type": "address"
        },
        {
          "indexed": false,
          "internalType": "uint256",
          "name": "value",
          "type": "uint256"
        }
      ],
      "name": "Approval",
      "type": "event"
    },
    {
      "anonymous": false,
      "inputs": [
        {
          "indexed": true,
          "internalType": "address",
          "name": "previousOwner",
          "type": "address"
        },
        {
          "indexed": true,
          "internalType": "address",
          "name": "newOwner",
          "type": "address"
        }
      ],
      "name": "OwnershipTransferred",
      "type": "event"
    },
    {
      "anonymous": false,
      "inputs": [
        {
          "indexed": true,
          "internalType": "address",
          "name": "from",
          "type": "address"
        },
        {
          "indexed": true,
          "internalType": "address",
          "name": "to",
          "type": "address"
        },
        {
          "indexed": false,
          "internalType": "uint256",
          "name": "value",
          "type": "uint256"
        }
      ],
      "name": "Transfer",
      "type": "event"
    },
    {
      "inputs": [],
      "name": "MAX_SUPPLY",
      "outputs": [
        {
          "internalType": "uint256",
          "name": "",
          "type": "uint256"
        }
      ],
      "stateMutability": "view",
      "type": "function"
    },
    {
      "inputs": [
        {
          "internalType": "address",
          "name": "owner",
          "type": "address"
        },
        {
          "internalType": "address",
          "name": "spender",
          "type": "address"
        }
      ],
      "name": "allowance",
      "outputs": [
        {
          "internalType": "uint256",
          "name": "",
          "type": "uint256"
        }
      ],
      "stateMutability": "view",
      "type": "function"
    },
    {
      "inputs": [
        {
          "internalType": "address",
          "name": "spender",
          "type": "address"
        },
        {
          "internalType": "uint256",
          "name": "value",
          "type": "uint256"
        }
      ],
      "name": "approve",
      "outputs": [
        {
          "internalType": "bool",
          "name": "",
          "type": "bool"
        }
      ],
      "stateMutability": "nonpayable",
      "type": "function"
    },
    {
      "inputs": [
        {
          "internalType": "address",
          "name": "account",
          "type": "address"
        }
      ],
      "name": "balanceOf",
      "outputs": [
        {
          "internalType": "uint256",
          "name": "",
          "type": "uint256"
        }
      ],
      "stateMutability": "view",
      "type": "function"
    },
    {
      "inputs": [
        {
          "internalType": "uint256",
          "name": "value",
          "type": "uint256"
        }
      ],
      "name": "burn",
      "outputs": [],
      "stateMutability": "nonpayable",
      "type": "function"
    },
    {
      "inputs": [
        {
          "internalType": "address",
          "name": "account",
          "type": "address"
        },
        {
          "internalType": "uint256",
          "name": "value",
          "type": "uint256"
        }
      ],
      "name": "burnFrom",
      "outputs": [],
      "stateMutability": "nonpayable",
      "type": "function"
    },
    {
      "inputs": [],
      "name": "decimals",
      "outputs": [
        {
          "internalType": "uint8",
          "name": "",
          "type": "uint8"
        }
      ],
      "stateMutability": "view",
      "type": "function"
    },
    {
      "inputs": [],
      "name": "escrowService",
      "outputs": [
        {
          "internalType": "address",
          "name": "",
          "type": "address"
        }
      ],
      "stateMutability": "view",
      "type": "function"
    },
    {
      "inputs": [
        {
          "internalType": "address",
          "name": "to",
          "type": "address"
        },
        {
          "internalType": "uint256",
          "name": "amount",
          "type": "uint256"
        }
      ],
      "name": "mint",
      "outputs": [],
      "stateMutability": "nonpayable",
      "type": "function"
    },
    {
      "inputs": [],
      "name": "name",
      "outputs": [
        {
          "internalType": "string",
          "name": "",
          "type": "string"
        }
      ],
      "stateMutability": "view",
      "type": "function"
    },
    {
      "inputs": [],
      "name": "owner",
      "outputs": [
        {
          "internalType": "address",
          "name": "",
          "type": "address"
        }
      ],
      "stateMutability": "view",
      "type": "function"
    },
    {
      "inputs": [],
      "name": "renounceOwnership",
      "outputs": [],
      "stateMutability": "nonpayable",
      "type": "function"
    },
    {
      "inputs": [
        {
          "internalType": "address",
          "name": "_escrowService",
          "type": "address"
        }
      ],
      "name": "setEscrowService",
      "outputs": [],
      "stateMutability": "nonpayable",
      "type": "function"
    },
    {
      "inputs": [],
      "name": "symbol",
      "outputs": [
        {
          "internalType": "string",
          "name": "",
          "type": "string"
        }
      ],
      "stateMutability": "view",
      "type": "function"
    },
    {
      "inputs": [],
      "name": "totalSupply",
      "outputs": [
        {
          "internalType": "uint256",
          "name": "",
          "type": "uint256"
        }
      ],
      "stateMutability": "view",
      "type": "function"
    },
    {
      "inputs": [
        {
          "internalType": "address",
          "name": "to",
          "type": "address"
        },
        {
          "internalType": "uint256",
          "name": "value",
          "type": "uint256"
        }
      ],
      "name": "transfer",
      "outputs": [
        {
          "internalType": "bool",
          "name": "",
          "type": "bool"
        }
      ],
      "stateMutability": "nonpayable",
      "type": "function"
    },
    {
      "inputs": [
        {
          "internalType": "address",
          "name": "from",
          "type": "address"
        },
        {
          "internalType": "address",
          "name": "to",
          "type": "address"
        },
        {
          "internalType": "uint256",
          "name": "value",
          "type": "uint256"
        }
      ],
      "name": "transferFrom",
      "outputs": [
        {
          "internalType": "bool",
          "name": "",
          "type": "bool"
        }
      ],
      "stateMutability": "nonpayable",
      "type": "function"
    },
    {
      "inputs": [
        {
          "internalType": "address",
          "name": "newOwner",
          "type": "address"
        }
      ],
      "name": "transferOwnership",
      "outputs": [],
      "stateMutability": "nonpayable",
      "type": "function"
    }
  ],
  "bytecode": "0x608060405234801561001057600080fd5b503360405180604001604052806011815260200170467265656c616e6365722050616c61636560781b8152506040518060400160405280600381526020016223262960e91b815250816003908161006791906101a5565b50600461007482826101a5565b5050506001600160a01b0381166100a557604051631e4fbdf760e01b81526000600482015260240160405180910390fd5b6100ae816100b4565b50610263565b600580546001600160a01b038381166001600160a01b0319831681179093556040519116919082907f8be0079c531659141344cd1fd0a4f28419497f9722a3daafe3b4186f6b6457e090600090a35050565b634e487b7160e01b600052604160045260246000fd5b600181811c9082168061013057607f821691505b60208210810361015057634e487b7160e01b600052602260045260246000fd5b50919050565b601f8211156101a057806000526020600020601f840160051c8101602085101561017d5750805b601f840160051c820191505b8181101561019d5760008155600101610189565b50505b505050565b81516001600160401b038111156101be576101be610106565b6101d2816101cc845461011c565b84610156565b6020601f82116001811461020657600083156101ee5750848201515b600019600385901b1c1916600184901b17845561019d565b600084815260208120601f198516915b828110156102365787850151825560209485019460019092019101610216565b50848210156102545786840151600019600387901b60f8161c191681555b50505050600190811b01905550565b610ab7806102726000396000f3fe608060405234801561001057600080fd5b50600436106101165760003560e01c806342966c68116100a25780638da5cb5b116100715780638da5cb5b1461024757806395d89b4114610258578063a9059cbb14610260578063dd62ed3e14610273578063f2fde38b146102ac57600080fd5b806342966c68146101f057806370a0823114610203578063715018a61461022c57806379cc67901461023457600080fd5b806319cf9882116100e957806319cf98821461019557806323b872dd146101aa578063313ce567146101bd57806332cb6b0c146101cc57806340c10f19146101dd57600080fd5b806305bfbf1a1461011b57806306fdde031461014b578063095ea7b31461016057806318160ddd14610183575b600080fd5b60065461012e906001600160a01b031681565b6040516001600160a01b0390911681526020015b60405180910390f35b6101536102bf565b60405161014291906108e7565b61017361016e366004610951565b610351565b6040519015158152602001610142565b6002545b604051908152602001610142565b6101a86101a336600461097b565b61036b565b005b6101736101b836600461099d565b610395565b60405160128152602001610142565b61018769d3c21bcecceda100000081565b6101a86101eb366004610951565b6103b9565b6101a86101fe3660046109da565b61047f565b61018761021136600461097b565b6001600160a01b031660009081526020819052604090205490565b6101a861048c565b6101a8610242366004610951565b6104a0565b6005546001600160a01b031661012e565b6101536104b5565b61017361026e366004610951565b6104c4565b6101876102813660046109f3565b6001600160a01b03918216600090815260016020908152604080832093909416825291909152205490565b6101a86102ba36600461097b565b6104d2565b6060600380546102ce90610a26565b80601f01602080910402602001604051908101604052809291908181526020018280546102fa90610a26565b80156103475780601f1061031c57610100808354040283529160200191610347565b820191906000526020600020905b81548152906001019060200180831161032a57829003601f168201915b5050505050905090565b60003361035f81858561050d565b60019150505b92915050565b61037361051f565b600680546001600160a01b0319166001600160a01b0392909216919091179055565b6000336103a385828561054c565b6103ae8585856105cb565b506001949350505050565b6006546001600160a01b031633146104115760405162461bcd60e51b815260206004820152601660248201527546543a206f6e6c7920657363726f775365727669636560501b60448201526064015b60405180910390fd5b69d3c21bcecceda10000008161042660025490565b6104309190610a60565b11156104715760405162461bcd60e51b815260206004820152601060248201526f11950e8818d85c08195e18d95959195960821b6044820152606401610408565b61047b828261062a565b5050565b6104893382610660565b50565b61049461051f565b61049e6000610696565b565b6104ab82338361054c565b61047b8282610660565b6060600480546102ce90610a26565b60003361035f8185856105cb565b6104da61051f565b6001600160a01b03811661050457604051631e4fbdf760e01b815260006004820152602401610408565b61048981610696565b61051a83838360016106e8565b505050565b6005546001600160a01b0316331461049e5760405163118cdaa760e01b8152336004820152602401610408565b6001600160a01b038381166000908152600160209081526040808320938616835292905220546000198110156105c557818110156105b657604051637dc7a0d960e11b81526001600160a01b03841660048201526024810182905260448101839052606401610408565b6105c5848484840360006106e8565b50505050565b6001600160a01b0383166105f557604051634b637e8f60e11b815260006004820152602401610408565b6001600160a01b03821661061f5760405163ec442f0560e01b815260006004820152602401610408565b61051a8383836107bd565b6001600160a01b0382166106545760405163ec442f0560e01b815260006004820152602401610408565b61047b600083836107bd565b6001600160a01b03821661068a57604051634b637e8f60e11b815260006004820152602401610408565b61047b826000836107bd565b600580546001600160a01b038381166001600160a01b0319831681179093556040519116919082907f8be0079c531659141344cd1fd0a4f28419497f9722a3daafe3b4186f6b6457e090600090a35050565b6001600160a01b0384166107125760405163e602df0560e01b815260006004820152602401610408565b6001600160a01b03831661073c57604051634a1406b160e11b815260006004820152602401610408565b6001600160a01b03808516600090815260016020908152604080832093871683529290522082905580156105c557826001600160a01b0316846001600160a01b03167f8c5be1e5ebec7d5bd14f71427d1e84f3dd0314c0f7b2291e5b200ac8c7c3b925846040516107af91815260200190565b60405180910390a350505050565b6001600160a01b0383166107e85780600260008282546107dd9190610a60565b9091555061085a9050565b6001600160a01b0383166000908152602081905260409020548181101561083b5760405163391434e360e21b81526001600160a01b03851660048201526024810182905260448101839052606401610408565b6001600160a01b03841660009081526020819052604090209082900390555b6001600160a01b03821661087657600280548290039055610895565b6001600160a01b03821660009081526020819052604090208054820190555b816001600160a01b0316836001600160a01b03167fddf252ad1be2c89b69c2b068fc378daa952ba7f163c4a11628f55a4df523b3ef836040516108da91815260200190565b60405180910390a3505050565b602081526000825180602084015260005b8181101561091557602081860181015160408684010152016108f8565b506000604082850101526040601f19601f83011684010191505092915050565b80356001600160a01b038116811461094c57600080fd5b919050565b6000806040838503121561096457600080fd5b61096d83610935565b946020939093013593505050565b60006020828403121561098d57600080fd5b61099682610935565b9392505050565b6000806000606084860312156109b257600080fd5b6109bb84610935565b92506109c960208501610935565b929592945050506040919091013590565b6000602082840312156109ec57600080fd5b5035919050565b60008060408385031215610a0657600080fd5b610a0f83610935565b9150610a1d60208401610935565b90509250929050565b600181811c90821680610a3a57607f821691505b602082108103610a5a57634e487b7160e01b600052602260045260246000fd5b50919050565b8082018082111561036557634e487b7160e01b600052601160045260246000fdfea2646970667358221220881483336dbd8f666297ea01a6ef451f088daee738a234497a770387d1a01cd064736f6c634300081c0033",
  "linkReferences": {},
  "deployedLinkReferences": {}
}