{
  "_format": "hh-sol-artifact-1",
  "contractName": "TicketRegistry",
  "sourceName": "contracts/TicketRegistry.sol",
  "abi": [
    {
      "anonymous": false,
      "inputs": [
        {
          "indexed": true,
          "internalType": "uint256",
          "name": "ticketId",
          "type": "uint256"
        },
        {
          "indexed": true,
          "internalType": "address",
          "name": "client",
          "type": "address"
        },
        {
          "indexed": false,
          "internalType": "string",
          "name": "metadataHash",
          "type": "string"
        },
        {
          "indexed": false,
          "internalType": "string",
          "name": "txHash",
          "type": "string"
        },
        {
          "indexed": false,
          "internalType": "uint256",
          "name": "createdAt",
          "type": "uint256"
        }
      ],
      "name": "TicketLogged",
      "type": "event"
    },
    {
      "inputs": [
        {
          "internalType": "uint256",
          "name": "ticketId",
          "type": "uint256"
        }
      ],
      "name": "getTicket",
      "outputs": [
        {
          "components": [
            {
              "internalType": "address",
              "name": "client",
              "type": "address"
            },
            {
              "internalType": "string",
              "name": "metadataHash",
              "type": "string"
            },
            {
              "internalType": "string",
              "name": "txHash",
              "type": "string"
            },
            {
              "internalType": "uint256",
              "name": "createdAt",
              "type": "uint256"
            }
          ],
          "internalType": "struct TicketRegistry.Ticket",
          "name": "",
          "type": "tuple"
        }
      ],
      "stateMutability": "view",
      "type": "function"
    },
    {
      "inputs": [],
      "name": "getTotalTickets",
      "outputs": [
        {
          "internalType": "uint256",
          "name": "",
          "type": "uint256"
        }
      ],
      "stateMutability": "view",
      "type": "function"
    },
    {
      "inputs": [
        {
          "internalType": "string",
          "name": "metadataHash",
          "type": "string"
        },
        {
          "internalType": "string",
          "name": "txHash",
          "type": "string"
        }
      ],
      "name": "logTicket",
      "outputs": [],
      "stateMutability": "nonpayable",
      "type": "function"
    },
    {
      "inputs": [
        {
          "internalType": "uint256",
          "name": "",
          "type": "uint256"
        }
      ],
      "name": "tickets",
      "outputs": [
        {
          "internalType": "address",
          "name": "client",
          "type": "address"
        },
        {
          "internalType": "string",
          "name": "metadataHash",
          "type": "string"
        },
        {
          "internalType": "string",
          "name": "txHash",
          "type": "string"
        },
        {
          "internalType": "uint256",
          "name": "createdAt",
          "type": "uint256"
        }
      ],
      "stateMutability": "view",
      "type": "function"
    }
  ],
  "bytecode": "0x6080604052348015600f57600080fd5b5061095b8061001f6000396000f3fe608060405234801561001057600080fd5b506004361061004c5760003560e01c806306e8337f1461005157806350b44712146100675780637dc379fa1461008a578063c301b7c9146100aa575b600080fd5b6000546040519081526020015b60405180910390f35b61007a610075366004610564565b6100bf565b60405161005e94939291906105c3565b61009d610098366004610564565b610215565b60405161005e919061060b565b6100bd6100b83660046106b6565b61040a565b005b600081815481106100cf57600080fd5b6000918252602090912060049091020180546001820180546001600160a01b039092169350906100fe90610727565b80601f016020809104026020016040519081016040528092919081815260200182805461012a90610727565b80156101775780601f1061014c57610100808354040283529160200191610177565b820191906000526020600020905b81548152906001019060200180831161015a57829003601f168201915b50505050509080600201805461018c90610727565b80601f01602080910402602001604051908101604052809291908181526020018280546101b890610727565b80156102055780601f106101da57610100808354040283529160200191610205565b820191906000526020600020905b8154815290600101906020018083116101e857829003601f168201915b5050505050908060030154905084565b610249604051806080016040528060006001600160a01b031681526020016060815260200160608152602001600081525090565b60005482106102925760405162461bcd60e51b8152602060048201526011602482015270125b9d985b1a59081d1a58dad95d081251607a1b604482015260640160405180910390fd5b600082815481106102a5576102a5610761565b6000918252602091829020604080516080810190915260049092020180546001600160a01b0316825260018101805492939192918401916102e590610727565b80601f016020809104026020016040519081016040528092919081815260200182805461031190610727565b801561035e5780601f106103335761010080835404028352916020019161035e565b820191906000526020600020905b81548152906001019060200180831161034157829003601f168201915b5050505050815260200160028201805461037790610727565b80601f01602080910402602001604051908101604052809291908181526020018280546103a390610727565b80156103f05780601f106103c5576101008083540402835291602001916103f0565b820191906000526020600020905b8154815290600101906020018083116103d357829003601f168201915b505050505081526020016003820154815250509050919050565b60006040518060800160405280336001600160a01b0316815260200186868080601f016020809104026020016040519081016040528093929190818152602001838380828437600092019190915250505090825250604080516020601f87018190048102820181019092528581529181019190869086908190840183828082843760009201829052509385525050426020938401525083546001808201865594825290829020835160049092020180546001600160a01b0319166001600160a01b039092169190911781559082015191929091908201906104eb90826107dc565b506040820151600282019061050090826107dc565b5060609190910151600390910155600054339061051f9060019061089b565b7f477e9bb79e50babebaaa02305b64149593b4b9efce7a6a41f418777ef94ca11886868686426040516105569594939291906108eb565b60405180910390a350505050565b60006020828403121561057657600080fd5b5035919050565b6000815180845260005b818110156105a357602081850181015186830182015201610587565b506000602082860101526020601f19601f83011685010191505092915050565b6001600160a01b03851681526080602082018190526000906105e79083018661057d565b82810360408401526105f9818661057d565b91505082606083015295945050505050565b602080825282516001600160a01b0316828201528201516080604083015260009061063960a084018261057d565b90506040840151601f19848303016060850152610656828261057d565b915050606084015160808401528091505092915050565b60008083601f84011261067f57600080fd5b50813567ffffffffffffffff81111561069757600080fd5b6020830191508360208285010111156106af57600080fd5b9250929050565b600080600080604085870312156106cc57600080fd5b843567ffffffffffffffff8111156106e357600080fd5b6106ef8782880161066d565b909550935050602085013567ffffffffffffffff81111561070f57600080fd5b61071b8782880161066d565b95989497509550505050565b600181811c9082168061073b57607f821691505b60208210810361075b57634e487b7160e01b600052602260045260246000fd5b50919050565b634e487b7160e01b600052603260045260246000fd5b634e487b7160e01b600052604160045260246000fd5b601f8211156107d757806000526020600020601f840160051c810160208510156107b45750805b601f840160051c820191505b818110156107d457600081556001016107c0565b50505b505050565b815167ffffffffffffffff8111156107f6576107f6610777565b61080a816108048454610727565b8461078d565b6020601f82116001811461083e57600083156108265750848201515b600019600385901b1c1916600184901b1784556107d4565b600084815260208120601f198516915b8281101561086e578785015182556020948501946001909201910161084e565b508482101561088c5786840151600019600387901b60f8161c191681555b50505050600190811b01905550565b818103818111156108bc57634e487b7160e01b600052601160045260246000fd5b92915050565b81835281816020850137506000828201602090810191909152601f909101601f19169091010190565b6060815260006108ff6060830187896108c2565b82810360208401526109128186886108c2565b915050826040830152969550505050505056fea2646970667358221220582b863ea372943a05fc9307a9890f3f30bbdbe8b408c2977e97b3a3b534f48b64736f6c634300081c0033",
  "linkReferences": {},
  "deployedLinkReferences": {}
}